:020000040800F2
:1000000000400020D1090008170A0008190A00085A
:100010001B0A00081D0A00081F0A00080000000053
:10002000000000000000000000000000210A00089D
:10003000230A000800000000250A0008270A00081B
:10004000290A00082B0A00082D0A00082F0A0008B8
:10005000310A0008330A0008350A0008370A000888
:10006000390A00083B0A00083D0A00083F0A000858
:10007000410A0008430A0008450A0008470A000828
:10008000490A00084B0A00084D0A00084F0A0008F8
:10009000510A0008530A0008550A0008570A0008C8
:1000A000590A00085B0A00085D0A00085F0A000898
:1000B000610A0008630A0008650A0008670A000868
:1000C000690A00086B0A00086D0A00086F0A000838
:1000D000710A0008730A0008CD050008770A0008B5
:1000E000790A00087B0A00087D0A00087F0A0008D8
:1000F000810A0008830A0008850A0008870A0008A8
:10010000000000000000000000000000890A000854
:100110008B0A00088D0A00088F0A0008910A00085F
:10012000930A0008950A0008970A0008990A00082F
:100130009B0A00089D0A0008000000000000000063
:100140009F0A0008A10A0008A30A00080000000096
:10015000000000000000000000000000000000009F
:100160000000000000000000A50A0008A70A00081F
:10017000A90A0008000000000000000000000000C4
:1001800000000000AB0A000810B5054C237833B915
:10019000044B13B10448AFF300800123237010BD5A
:1001A0009800002000000000F81E0008084B10B561
:1001B0001BB108490848AFF300800848036803B939
:1001C00010BD074B002BFBD0BDE81040184700BF07
:1001D000000000009C000020F81E0008980000208D
:1001E00000000000154B002B08BF134B9D46A3F5E4
:1001F000803A00218B460F461348144A121A00F029
:10020000EDFC0F4B002B00D098470E4B002B00D07D
:1002100098470020002104000D000D48002802D05E
:100220000C48AFF3008000F0B3FC2000290000F080
:1002300093FB00F099FC00BF000008000040002084
:10024000000000000000000098000020CC01002009
:100250000000000000000000F0B5A14A536803F060
:100260000C03042B02D0082B00F0F5809D4A02609D
:1002700000259B4CDFF874C26368DFF874E2C3F3B7
:1002800003131CF80370FFB222FA07F3436061689E
:10029000C1F302211CF8011023FA01F181606668A4
:1002A000C6F3C2261CF80660F6B2F340C360E46AE7
:1002B000C4F304143EF81440A4B214F0100F1CBF91
:1002C000B5FBF4F40461864C08BF0261E46AC4F330
:1002D00044243EF81440A4B214F0100F1CBFB5FB28
:1002E000F4F444617E4C08BF4261246BE4065CBFB9
:1002F0007C4C84617A4C48BF8261246BA4065CBF4D
:10030000784CC461764C48BFC261D4F830E01EF42A
:10031000807F49D0954200F0B8800362246B43622D
:100320006F4C256BAD0711D0236B03F00303012B3A
:1003300000F0B680236B03F00303022B00F0BB80B8
:10034000236B03F00303032B01D1664B8362644BE1
:100350001C6B14F4403F31D1C162614B1C6B14F42F
:10036000402F44D101635E4B1C6B14F4401F57D1E6
:1003700041635B4B1C6B14F4400F6AD0196B01F4A2
:100380004001B1F5800F00F091801A6B02F4400239
:10039000B2F5000F00F09F801B6B03F44003B3F530
:1003A000400F00F08580F0BD0362246BA405B6D534
:1003B0009542B4D1B742B2D155006FE01C6B04F442
:1003C0004034B4F5803F5AD01C6B04F44034B4F58B
:1003D000003F78D01B6B03F44033B3F5403F04BFBC
:1003E000404BC3623E4B1C6B14F4402FBAD01C6BC5
:1003F00004F44024B4F5802F45D01C6B04F4402451
:10040000B4F5002F5BD01B6B03F44023B3F5402FF2
:1004100004BF344B0363324B1C6B14F4401FA7D052
:100420001C6B04F44014B4F5801F2AD01C6B04F438
:100430004014B4F5001F4AD01B6B03F44013B3F50E
:10044000401F04BF274B4363254B1C6B14F4400F24
:1004500094D18163F0BD55685368C5F38345DB03D0
:1004600005F102011ED5D36A1E4D03F00F030133BF
:10047000B5FBF3F301FB03F505602A46F9E6C2621A
:100480006BE7426375E702636DE7B7427FF445AF00
:1004900055000562246BA6057FF541AF45623FE735
:1004A000826254E7104B03FB01F5E5E78263F0BD80
:1004B0000C4B8363F0BD4FF40043836247E74FF476
:1004C000004303634FE74FF40043C36245E74FF433
:1004D000004343634DE74FF400438363F0BD00BF27
:1004E0000010024000127A0000093D001C000020AC
:1004F00000000020C1F308010185704710B4CCB2A0
:10050000C1F307210123022903FA04F30ED00329C2
:1005100008BF08302AB9026810BC22EA030303604E
:100520007047026810BC1343036070470430F1E762
:10053000C3690B4214BF012000207047C1F307229A
:1005400010B40123CCB2012A03FA04F313D0022A17
:100550000CBF426882681340C2694BB10123090C89
:1005600003FA01F1114214BF1846002010BC704775
:10057000184610BC704702681340EDE7014608B505
:100580000448FFF7B7FF80210248FFF7D1FF00289A
:10059000F9D008BD0044004070B51E1E13DD14469E
:1005A000951903E0FFF7EAFFAC420CD014F8010BF9
:1005B0000A28F7D10D20FFF7E1FF14F8010CFFF72F
:1005C000DDFFAC42F2D1304670BD00BF38B50F4CF4
:1005D0000F492046FFF7B2FF88B10E480E4D037851
:1005E0000E49DBB25A1CD2B20270A28CD2B2EA54CB
:1005F0000B78FF2B04D00B780133DBB20B7038BDC6
:10060000074A13780133DBB2137038BD0044004051
:1006100005010500B4000020B8000020B901002049
:10062000B801002070B5494E494C336890B005467A
:100630000021986800F068FB33680021586800F0DA
:1006400063FB444A536943F400335361D1694FF06B
:10065000904341F40031D1611A6A22F470621A6247
:100660001A6A42F4E0621A621A6A22F470421A624A
:100670001A6A42F4E0421A629A6822F0F0029A6022
:100680009A6842F050029A609A8822F00C02120492
:10069000120C9A809A8892B29A801A6822F0F0021C
:1006A0001A601A6842F0A0021A60DA6822F0F002BA
:1006B000DA60DA6842F05002DA60236823F001035E
:1006C0002360636823F44053636063686360236856
:1006D00023F4B05323F00C032360236823602368C2
:1006E0002360236843F00C032360A36823F4407362
:1006F000A360A368A36001A8FFF7AEFD23680C9A6E
:10070000190448BF5200B2FBF5F305FB1322B2EB0C
:10071000550F0F4A126828BF0133120405D54FF652
:10072000F0721A40C3F34203134309480A499BB2CB
:100730008381036843F0010303600122FFF7DEFEBB
:10074000064B40225A6010B070BD00BF8C000020E4
:1007500000440040001002400501050000E100E0F7
:100760001B21014800F042BAEC1D00082DE9F04FB2
:1007700087B0C7B2DDF840809DF9445098F800403A
:100780005B1AD21B581C531C5BB242B201920293FB
:100790003CB1002301339CB223B218F80320002A95
:1007A000F8D1002D00F0B880012D0CBF6FF043038D
:1007B000002305930CBF6FF03703002303930CBF96
:1007C0006FF04403002304930BBF6FF033094FF025
:1007D00000096FF0460A4FF0000A0BBF6FF03205B8
:1007E00000256FF0360B4FF0000B0CBF6FF0450685
:1007F000002600230A4654481B21013F00F0F6F969
:100800007FB20A2000F00AFA3A461B214F4800F056
:10081000EDF9584600F002FA284600F0FFF950467C
:1008200000F0FCF907221B21494800F0DFF941469E
:10083000484800F0DBF91B221146BDF80880444807
:1008400000F0D4F9484600F0E9F9A8F105031C1BB3
:1008500024B2002CC8BF4FF0000908DD09F10109DE
:1008600028460FFA89F900F0D9F94C45F6D10498D9
:1008700000F0D4F9019B0A2003F1FF3900F0CEF912
:10088000B9F1010F5CDDA8F1020424B24FF00108B8
:100890003A461B212D4800F0A9F9304600F0BEF978
:1008A000002CC8BF4FF0000A08DD0AF1010A202021
:1008B00000F0B4F90FFA8AF39C42F6DC304608F1F6
:1008C000010800F0ABF90FFA88F80A2000F0A6F949
:1008D000C845DDDB3A461B211C4800F087F9039828
:1008E00000F09CF9002CC8BF002606DD0136284622
:1008F00000F094F933B2A342F8DB059800F08EF9CA
:100900000A2000F08BF900230F481A461B2107B07C
:10091000BDE8F04F00F06AB96FF0400304936FF048
:100920003F0303936FF026036FF0250B6FF03B0539
:100930006FF04B0A6FF03C0905936FF04C0658E7D7
:10094000A8F1020424B2C5E7FC1D0008181E000827
:10095000CC1D0008281E000810B54FF4165082B0B8
:10096000FFF760FEFFF7FCFE154800F0C5F9002414
:10097000A1B211FB01F292B211FB02F39BB213FB85
:1009800001F189B200910F482146013400F02EF99F
:100990000A2CEDD100220C4B0192009321221C2342
:1009A00016211B20FFF7E2FE0122084B0192009363
:1009B00019221C2316210520FFF7D8FEFEE700BFF1
:1009C0002C1E0008401E0008501E0008541E00087F
:1009D0000649074A074B9A42BEBF51F8040B42F83A
:1009E000040BF8E70448804704480047041F000848
:1009F0000000002098000020B50A0008E50100086A
:100A00002A492B4A002301E041F8043B9142FBD3E1
:100A1000FFF7A2FFFEE7FEE7FEE7FEE7FEE7FEE7E1
:100A2000FEE7FEE7FEE7FEE7FEE7FEE7FEE7FEE79E
:100A3000FEE7FEE7FEE7FEE7FEE7FEE7FEE7FEE78E
:100A4000FEE7FEE7FEE7FEE7FEE7FEE7FEE7FEE77E
:100A5000FEE7FEE7FEE7FEE7FEE7FEE7FEE7FEE76E
:100A6000FEE7FEE7FEE7FEE7FEE7FEE7FEE7FEE75E
:100A7000FEE7FEE7FEE7FEE7FEE7FEE7FEE7FEE74E
:100A8000FEE7FEE7FEE7FEE7FEE7FEE7FEE7FEE73E
:100A9000FEE7FEE7FEE7FEE7FEE7FEE7FEE7FEE72E
:100AA000FEE7FEE7FEE7FEE7FEE7FEE79800002030
:100AB000CC01002010B4274B274A18682749284C3E
:100AC00040F001001860586802405A601A6822F02D
:100AD000847222F480321A601A6822F480221A602A
:100AE0005A6822F4FE025A60DA6A22F00F02DA62D1
:100AF0001A6B0020114012221963986022605A6814
:100B00005A605A685A605A6842F480625A605A6859
:100B100022F47C125A605A6842F460125A601A68D1
:100B200042F080721A6019680A4A8901FBD553683D
:100B300023F003035360536843F002035360536888
:100B400003F00C03082BFAD1064B4FF000629A60B9
:100B500010BC7047001002400CC07FF8CCFC00FFB6
:100B60000020024000ED00E008B5074B044613B139
:100B70000021AFF30080054B1868836A03B19847E2
:100B8000204601F00FF900BF00000000601E0008C1
:100B900070B50E4B0E4CE41AA41000251E46A5425B
:100BA00004D056F8253098470135F8E701F0FCF8F5
:100BB000084C094BE41AA41000251E46A54204D097
:100BC00056F8253098470135F8E770BD90000020B1
:100BD0009000002094000020900000200244034672
:100BE000934202D003F8011BFAE770470FB40A4B97
:100BF00013B51C6824B1A36913B9204600F0EAFAC2
:100C000005AB049AA1680193204600F0A9FC02B04C
:100C1000BDE8104004B070478C00002038B5084B88
:100C20001C68054624B1A36913B9204600F0D2FA26
:100C3000A26829462046BDE8384000F049BF00BF01
:100C40008C00002070B50E46054618B183690BB9BB
:100C500000F0C0FAAB69AC6813B9284600F0BAFAE4
:100C6000224B9C4201D16C6808E0214B9C4201D18F
:100C7000AC6803E01F4B9C4208BFEC68A3891B07CC
:100C800001D523693BB92146284600F043F910B14C
:100C90004FF0FF3070BD013EA36816F8011F013B05
:100CA000A36091B1002B04DAA269934206DB0A2902
:100CB00004D023685A1C22601970EDE722462846AA
:100CC00000F0D4F80130E7D1E2E7002B08DA224641
:100CD0000A21284600F0CAF80130D9D00A2070BD98
:100CE00023680A205A1C2260187070BD641E000818
:100CF000841E0008A41E0008024B01461868FFF776
:100D0000A1BF00BF8C00002000294FF480630CBFFE
:100D10000222002200F000B82DE9F7431D464F4B98
:100D20001E6804460F46904626B1B36913B9304693
:100D300000F050FA4A4B9C4201D1746808E0494BDC
:100D40009C4201D1B46803E0474B9C4208BFF46861
:100D5000B8F1020F04D0B8F1010F79D8002D77DB7C
:100D60002146304600F0CCF9616B41B104F14403F7
:100D7000994202D0304600F01FFB0023636300233A
:100D8000A3616360A3891B0603D52169304600F087
:100D900013FBA38923F44A6323F00303B8F1020F82
:100DA000A3811ED001AB6A462146304600F09CFA72
:100DB000A3891843A0810DB9009D00E02FBB2846F0
:100DC00000F0F2FA0746D0B9DDF80090A94502D14B
:100DD0004FF0FF3006E0484600F0E6FA074678B9E3
:100DE000F6E70020A38943F00203A3810023A36058
:100DF00004F1470323602361012363612AE0A946CC
:100E0000A38943F08003A3814D46B36913B93046EB
:100E100000F0E0F9B8F1010F08BFA389276004BF13
:100E200043F00103A381A389276103F0080080B286
:100E3000656158B113F001034FF000001DBF6D4212
:100E4000A060A561A56008BF184603E0A06001E0AE
:100E50004FF0FF3003B0BDE8F08300BF8C000020EE
:100E6000641E0008841E0008A41E0008F8B50F4682
:100E70001446064618B183690BB900F0ABF9224B52
:100E80009C4201D1746808E0204B9C4201D1B468B7
:100E900003E01F4B9C4208BFF468A369A360A389C9
:100EA0001A0709D523693BB123682069181A6369B9
:100EB0009842FDB20FDB08E02146304600F02AF8E8
:100EC0000028F1D04FF0FF30F8BD2146304600F049
:100ED00017F90028F6D1A368013BA36023685A1CC8
:100EE00022601F706269431C934204D0A389DB0710
:100EF00007D50A2D05D12146304600F001F900281A
:100F0000E0D12846F8BD00BF641E0008841E00081A
:100F1000A41E0008324B70B51D6806460C4625B16C
:100F2000AB6913B9284600F055F92E4B9C4201D10C
:100F30006C6808E02C4B9C4201D1AC6803E02B4B61
:100F40009C4208BFEC68B4F90C309AB215071DD466
:100F5000D00602D4092232603AE0510712D5616B03
:100F600041B104F14403994202D0304600F024FA22
:100F700000236363A38923F02403A3810023636018
:100F800023692360A38943F00803A38123694BB934
:100F9000A38903F42073B3F5007F03D021463046C4
:100FA00000F0C6F9A28912F0010305D00023A36066
:100FB00063695B42A36103E0920758BF6369A36062
:100FC00023695BB9B4F90C3003F0800080B230B112
:100FD00043F04003A3814FF0FF3070BD002070BD8F
:100FE0008C000020641E0008841E0008A41E000857
:100FF0008A892DE9F041054610070C4659D44B6803
:10100000002B02DC0B6C002B17DDE66AAEB102F49C
:101010008052002392B22F682B600AB1606D15E0F8
:10102000216A01232846B047411C0FD12B686BB1C0
:101030001D2B01D0162B03D12F600020BDE8F081BD
:10104000A38943F04003A381BDE8F081A3895A0737
:1010500005D56368C01A636B0BB1236CC01A0023FB
:101060000246E66A216A2846B047431CA38906D196
:1010700029681D293AD8214ACA40D60736D5002208
:101080006260D9042269226004D5421C01D12B6818
:1010900003B96065616B2F600029CED004F1440371
:1010A000994202D0284600F087F900206063BDE82D
:1010B000F0810F69002FC0D093070E6808BF4B69FD
:1010C0000F6018BF0023C7EB06088B6002E00744DF
:1010D000C0EB0808B8F1000FAFDD43463A46216A7D
:1010E000A66A2846B0470028F1DCA38943F04003F4
:1010F000A3814FF0FF30BDE8F08100BF0100402028
:1011000038B50B6905460C46DBB118B183690BB9DC
:1011100000F060F80C4B9C4201D16C6808E00B4B6E
:101120009C4201D1AC6803E0094B9C4208BFEC68CB
:10113000B4F90C302BB121462846BDE83840FFF702
:1011400057BF002038BD00BF641E0008841E000881
:10115000A41E0008014900F0A9B800BF0111000851
:10116000002310B5044603604360836081814366B9
:10117000C281036143618361194608225C30FFF735
:101180002DFD054B6362054BA362054BE362054BE6
:101190002462236310BD00BF5D1B00087F1B000895
:1011A000B71B0008DB1B000870B568234D1E5D43AC
:1011B0000E4605F1740100F04DF9044640B10021DE
:1011C00080E842000C30A06005F16802FFF706FDE0
:1011D000204670BD836910B5044633BB8364C36485
:1011E0000365124B124A1B688262984204BF0123B6
:1011F000836100F01FF86060204600F01BF8A060DB
:10120000204600F017F80022E06004216068FFF734
:10121000A7FF01220921A068FFF7A2FF02221221E5
:10122000E068FFF79DFF0123A36110BD601E000869
:1012300055110008F8B51C4B1E68B369074613B971
:101240003046FFF7C7FF4836B4687368013B04D4E3
:10125000B4F90C507DB16834F8E733680BB13668E7
:10126000F2E704213846FFF79FFF30600028F6D1EF
:101270000C233B60F8BD4FF6FF73E3810123A3818C
:1012800065662560A560656025616561A5610822C8
:10129000294604F15C00FFF7A1FC6563A563A56422
:1012A000E5642046F8BD00BF601E00082DE9F84344
:1012B0008046894600F14804002694B1A568676815
:1012C000013F0CD4AB89012B07D9B5F90E3001339E
:1012D00003D029464046C84706436835F0E72468EE
:1012E000EBE73046BDE8F88370B50E46B1F90E1055
:1012F000002990B014461D4606DA00232B60B389FE
:101300001A060ED540230EE001AA00F07BFC00284F
:10131000F3DB029A02F47042A2F500535A425A419A
:101320002A604FF480630020236010B070BD00007D
:101330008B8973B59E0705460C4610D401AB6A46EF
:10134000FFF7D2FF00990646284600F083F868B9F7
:10135000B4F90C309A0522D443F00203A38104F1BE
:101360004703236023610123636118E00D4BAB62E7
:10137000A389206043F08003A381009B6361019BEC
:1013800020614BB1B4F90E10284600F04DFC18B1A5
:10139000A38943F00103A381A0893043A08102B057
:1013A00070BD00BF55110008024B0146186800F0DF
:1013B00051B800BF8C00002038B50546002946D042
:1013C00051F8043C0C1F002BB8BFE41800F0A0FC3F
:1013D0001F4A1368114613B96360146032E0A342D8
:1013E0000ED92268A018834204BF18685B68636046
:1013F00004BF121822600C6024E0A24203D81346F6
:101400005A68002AF9D118681918A1420BD121682D
:10141000014458188242196014D1106852685A6009
:10142000014419600EE002D90C232B600AE0216808
:101430006018824204BF10685268626004BF0918D5
:1014400021605C602846BDE8384000F062BC38BDD1
:10145000C001002070B5CD1C25F0030508350C2D0A
:1014600038BF0C25002D064601DBA94202D90C230A
:10147000336046E000F04CFC234B1C681A462146C2
:10148000A1B10B685B1B0ED40B2B03D90B60CC18DE
:10149000CD501EE08C420DBF63684B6863601360E3
:1014A00018BF0C4615E00C464968E9E7174C23685D
:1014B0001BB9304600F042FB20602946304600F060
:1014C0003DFB431C18D0C41C24F00304A0420DD1E2
:1014D0002560304600F01DFC04F10B00231D20F0B8
:1014E0000700C31A0ED05A42E25070BD211A30468E
:1014F00000F024FB0130EBD10C233360304600F0C8
:1015000008FC002070BD00BFC0010020BC0100200D
:101510009368013B002B10B4936008DA9469A342EE
:1015200002DBCBB20A2B02D110BCFFF79FBC1368C1
:10153000581C10601970C8B210BC7047F8B5064648
:101540000F461446D518AC4208D03A4614F8011B91
:101550003046FFF7DDFF431CF5D100E00020F8BD69
:101560002DE9F04F9DB00C4617460393064618B17F
:1015700083690BB9FFF72EFE7F4B9C4201D1746843
:1015800008E07E4B9C4201D1B46803E07C4B9C4256
:1015900008BFF468A38918070CD5236953B1002349
:1015A000099320238DF8293030238DF82A30DFF875
:1015B000D4B144E021463046FFF7ACFC0028EED021
:1015C0004FF0FF30D5E0039A111D12680391002AF5
:1015D00080F28C80524243F002000792049098F807
:1015E00000302E2B00F08480032298F8001065480C
:1015F00000F03EFB48B14023CBEB000003FA00F0C3
:10160000049B1843049008F1010898F800105E4804
:101610008DF82810062208F1010700F029FB0028A8
:1016200000F09580594B002B40F08880039B0733D6
:1016300023F0070308330393099B53440993B846E7
:10164000454615F8013B1BB9B8EB07090FD003E07D
:10165000252BF9D0A846F3E74B463A4621463046BB
:10166000FFF76CFF01307FD0099B4B44099398F83A
:101670000030002B78D000234FF0FF320493079303
:10168000059206938DF853301A9301270522297885
:101690003F4800F0EDFA05F10108049B38B13C4ADF
:1016A000801A07FA00F0184304904546EEE7D90681
:1016B00044BF20228DF853201A0744BF2B228DF8F7
:1016C00053202A782A2A3FF47EAF079A00210A2065
:1016D000A846013598F80030303B092B03D800FBB1
:1016E00002320121F4E700293FF479AF079276E74F
:1016F00098F801302A2B0BD1039B1A1D1B6803920B
:10170000002BB8BF4FF0FF3308F1020805936BE7D9
:101710000023059308F1010019460A25804601308F
:1017200098F80020303A092A03D805FB012101234B
:10173000F4E7002B3FF458AF059155E703AB009356
:101740002246144B04A93046AFF3008007E003ABF8
:10175000009322460F4B04A9304600F093F8B0F1F5
:10176000FF3F82467FF468AFA3895B063FF528AF51
:1017700009981DB0BDE8F08F641E0008841E0008A3
:10178000A41E0008CA1E0008CE1E000800000000AB
:10179000C41E00083D1500082DE9F04791461F467C
:1017A0000A698B68DDF820809342B8BF1346C9F8F8
:1017B000003091F8432006460C4612B10133C9F8B7
:1017C00000302368990642BFD9F800300233C9F8C7
:1017D0000030256815F0060510D104F1190A07E05C
:1017E0000123524639463046C04701301AD00135F0
:1017F000E368D9F800209B1A9D42F1DB94F843304E
:101800002268003318BF012392060FD5E1185A1C35
:10181000302081F84300224494F8451082F84310A8
:10182000023303E04FF0FF30BDE8F08704F14302DC
:1018300039463046C0470130F4D02268D9F800500C
:10184000E36802F00602042A08BF5D1B2269A36850
:101850000CBF25EAE57500259342C4BF9B1AED181D
:101860004FF000091A344D4509D00123224639466C
:101870003046C0470130D5D009F10109F3E7002017
:10188000BDE8F0872DE9F04317460A7E85B06E2A41
:10189000984606460C460C9B01F1430E00F0AE80C4
:1018A00011D8632A22D009D8002A00F0BB80582A18
:1018B00040F0CA8081F84520834955E0642A1ED053
:1018C000692A1CD0C0E0732A00F0B08009D86F2AC2
:1018D0002ED0702A40F0B8800A6842F020020A60D8
:1018E0003EE0752A24D0782A3AD0ADE01A6801F19A
:1018F0004205111D1960136884F84230A8E0216880
:101900001A6811F0800F02D0111D196008E011F063
:10191000400F02F10401196002D0B2F9003000E07A
:101920001368002B3CDA2D225B4284F8432037E019
:1019300021681A6811F0800F02D0111D196007E0AC
:1019400011F0400F02F10401196001D0138800E08A
:101950001368227E5C496F2A14BF0A2208221BE00A
:1019600078225A4984F845202268186812F0800FBE
:1019700000F104051D6003D1550601D5038800E080
:101980000368D00744BF42F0200222601BB92268DE
:1019900022F0200222601022002084F8430001E09F
:1019A00049490A226568A560002D08DB206820F0FF
:1019B000040020602BB9002D7DD175460CE0002B72
:1019C00079D07546B3FBF2F002FB1033CB5C05F81F
:1019D000013D03460028F5D1082A0BD12368DA0718
:1019E00008D5236962689A42DEBF302305F8013CBE
:1019F00005F1FF35C5EB0E0323612EE008681A6878
:101A0000496910F0800F03D0101D1860136808E0BA
:101A100010F0400F02F104001860136801D0198023
:101A200000E0196000232361754616E01A68111D55
:101A30001960156862680021284600F019F908B19C
:101A4000401B6060636804E004F1420584F84220B2
:101A500001232361002384F84330CDF800803B4606
:101A600003AA21463046FFF797FE013002D14FF01E
:101A7000FF3026E023692A4639463046C047013008
:101A8000F5D023689B0710D5002504F1190907E05C
:101A900001234A4639463046C0470130E7D0013578
:101AA000E368039A9B1A9D42F2DBE068039B98422D
:101AB000B8BF184605E00B7884F8423004F14205BF
:101AC0008AE705B0BDE8F083D51E0008E61E0008D1
:101AD00070B50D461446064618B183690BB9FFF779
:101AE00079FB134B9C4201D1746808E0114B9C4276
:101AF00001D1B46803E0104B9C4208BFF468A368AE
:101B0000013B002BA3600CDAA269934202DBEBB22B
:101B10000A2B06D1224629463046BDE87040FFF721
:101B2000A5B923685A1C22601D70E8B270BD00BFC1
:101B3000641E0008841E0008A41E000838B5064C68
:101B4000002305460846236000F01EF9431C02D11D
:101B5000236803B12B6038BDC801002010B50C46C6
:101B6000B1F90E1000F0D6F80028ABBF636DA38961
:101B70001B1823F48053ACBF6365A38110BD2DE90E
:101B8000F0411F468B89DB0505460C46164605D5F8
:101B900002230022B1F90E1000F056F8A389B4F91F
:101BA0000E1023F48053A38132463B462846BDE8FD
:101BB000F041FEF7F1BC10B50C46B1F90E1000F083
:101BC00043F8431CA38915BF606523F4805343F495
:101BD0008053A38118BFA38110BDB1F90E1000F08E
:101BE00001B8000038B5064C0023054608462360BE
:101BF00000F0A2F8431C02D1236803B12B6038BD6A
:101C0000C801002038B5074C002305460846114698
:101C1000236000F099F8431C02D1236803B12B60C4
:101C200038BD00BFC801002038B5064C002305466A
:101C30000846236000F090F8431C02D1236803B1EA
:101C40002B6038BDC801002038B5074C0546084652
:101C50001146002222601A4600F086F8431C02D189
:101C6000236803B12B6038BDC801002000000000CC
:101C700001F0FF01102A2BDB10F0070F08D010F83D
:101C8000013B013A8B422DD010F0070F42B3F6D141
:101C9000F0B441EA012141EA014122F007047FF05A
:101CA00000070023F0E80256083C85EA010586EAB1
:101CB000010685FA47F5A3FA87F586FA47F6A5FAED
:101CC00087F68EB9EED1F0BC01F0FF0102F00702F9
:101CD00032B110F8013B013A83EA010313B1F8D1A4
:101CE0000020704701387047002D06BF3546033885
:101CF000073815F0010F07D1013015F4807F02BFBE
:101D0000013015F4C03F0130F0BC0138704700BF0E
:101D10007047704738B5074C054608461146002203
:101D200022601A4600F028F8431C02D1236803B150
:101D30002B6038BDC8010020024B58221A604FF0BA
:101D4000FF307047C8010020024B58221A604FF044
:101D5000FF307047C8010020024B58221A60002053
:101D6000704700BFC8010020024B58221A604FF094
:101D7000FF307047C8010020024B58221A604FF014
:101D8000FF307047C8010020044B1968024609B9AA
:101D900003491960186802441A607047C4010020A2
:101DA000D0010020FEE70000F8B500BFF8BC08BC79
:101DB0009E467047F8B500BFF8BC08BC9E46704709
:101DC00025635B25643B25646D00000025635B256E
:101DD000646D000025635B25643B25643B25646DD1
:101DE0000000000025635B6D0000000025635B328E
:101DF0004A00000025635B4B0000000025635B2563
:101E0000643B25644800000025635B2564410000B5
:101E100025635B256442000025635B256443000065
:101E200025635B2564440000257300000A0A2078BE
:101E300020785E3220785E3320785E340000000027
:101E40002538642538642538642538640A00000084
:101E5000596F000048656C6C6F0000004300000083
:101E60002C00002000000000000000000000000026
:101E70000000000000000000000000000000000062
:101E80000000000000000000000000000000000052
:101E90000000000000000000000000000000000042
:101EA0000000000000000000000000000000000032
:101EB0000000000000000000000000000000000022
:101EC00000000000232D302B2000686C4C0065665C
:101ED000674546470030313233343536373839417B
:101EE0004243444546003031323334353637383991
:0C1EF00061626364656600000000000091
:081EFC00E8E2FF7F0100000095
:101F04000000010002000400060008000A000C00A2
:101F140010002000400080000001000000000000CC
:101F2400010203040102030406070809000000007B
:101F3400641E0008841E0008A41E0008000000009F
:101F44000000000000000000000000005C1E00080B
:101F5400000000000000000000000000000000007D
:101F6400000000000000000000000000000000006D
:101F7400000000000000000000000000000000005D
:101F84000000000000000000000000002C00002001
:081F9400AD01000889010008FD
:0400000508000000EF
:00000001FF
